{
  "_format": "hh-sol-artifact-1",
  "contractName": "callContractWT",
  "sourceName": "contracts/brdige.sol",
  "abi": [
    {
      "inputs": [
        {
          "internalType": "address",
          "name": "gateway_",
          "type": "address"
        },
        {
          "internalType": "address",
          "name": "gasReceiver_",
          "type": "address"
        }
      ],
      "stateMutability": "nonpayable",
      "type": "constructor"
    },
    {
      "inputs": [],
      "name": "InvalidAddress",
      "type": "error"
    },
    {
      "inputs": [],
      "name": "NotApprovedByGateway",
      "type": "error"
    },
    {
      "inputs": [
        {
          "internalType": "bytes32",
          "name": "commandId",
          "type": "bytes32"
        },
        {
          "internalType": "string",
          "name": "sourceChain",
          "type": "string"
        },
        {
          "internalType": "string",
          "name": "sourceAddress",
          "type": "string"
        },
        {
          "internalType": "bytes",
          "name": "payload",
          "type": "bytes"
        }
      ],
      "name": "execute",
      "outputs": [],
      "stateMutability": "nonpayable",
      "type": "function"
    },
    {
      "inputs": [
        {
          "internalType": "bytes32",
          "name": "commandId",
          "type": "bytes32"
        },
        {
          "internalType": "string",
          "name": "sourceChain",
          "type": "string"
        },
        {
          "internalType": "string",
          "name": "sourceAddress",
          "type": "string"
        },
        {
          "internalType": "bytes",
          "name": "payload",
          "type": "bytes"
        },
        {
          "internalType": "string",
          "name": "tokenSymbol",
          "type": "string"
        },
        {
          "internalType": "uint256",
          "name": "amount",
          "type": "uint256"
        }
      ],
      "name": "executeWithToken",
      "outputs": [],
      "stateMutability": "nonpayable",
      "type": "function"
    },
    {
      "inputs": [],
      "name": "gasService",
      "outputs": [
        {
          "internalType": "contract IAxelarGasService",
          "name": "",
          "type": "address"
        }
      ],
      "stateMutability": "view",
      "type": "function"
    },
    {
      "inputs": [],
      "name": "gateway",
      "outputs": [
        {
          "internalType": "contract IAxelarGateway",
          "name": "",
          "type": "address"
        }
      ],
      "stateMutability": "view",
      "type": "function"
    },
    {
      "inputs": [
        {
          "internalType": "string",
          "name": "destinationChain",
          "type": "string"
        },
        {
          "internalType": "string",
          "name": "destinationAddress",
          "type": "string"
        },
        {
          "internalType": "address",
          "name": "destinationAddresses",
          "type": "address"
        },
        {
          "internalType": "string",
          "name": "symbol",
          "type": "string"
        },
        {
          "internalType": "uint256",
          "name": "amount",
          "type": "uint256"
        }
      ],
      "name": "sendToMany",
      "outputs": [],
      "stateMutability": "payable",
      "type": "function"
    }
  ],
  "bytecode": "0x60c06040523480156200001157600080fd5b50604051620014d3380380620014d383398181016040528101906200003791906200017a565b81600073ffffffffffffffffffffffffffffffffffffffff168173ffffffffffffffffffffffffffffffffffffffff16036200009f576040517fe6c4247b00000000000000000000000000000000000000000000000000000000815260040160405180910390fd5b8073ffffffffffffffffffffffffffffffffffffffff1660808173ffffffffffffffffffffffffffffffffffffffff1681525050508073ffffffffffffffffffffffffffffffffffffffff1660a08173ffffffffffffffffffffffffffffffffffffffff16815250505050620001c1565b600080fd5b600073ffffffffffffffffffffffffffffffffffffffff82169050919050565b6000620001428262000115565b9050919050565b620001548162000135565b81146200016057600080fd5b50565b600081519050620001748162000149565b92915050565b6000806040838503121562000194576200019362000110565b5b6000620001a48582860162000163565b9250506020620001b78582860162000163565b9150509250929050565b60805160a0516112bb62000218600039600081816103bf015261060401526000818161011501528181610155015281816102570152818161030f0152818161045801528181610510015261063d01526112bb6000f3fe60806040526004361061004a5760003560e01c8063116191b61461004f5780631a98b2e01461007a5780632db18db2146100a357806349160658146100bf5780636a22d8cc146100e8575b600080fd5b34801561005b57600080fd5b50610064610113565b60405161007191906107ec565b60405180910390f35b34801561008657600080fd5b506100a1600480360381019061009c9190610942565b610137565b005b6100bd60048036038101906100b89190610bd1565b610253565b005b3480156100cb57600080fd5b506100e660048036038101906100e19190610ca0565b6104f2565b005b3480156100f457600080fd5b506100fd610602565b60405161010a9190610d8a565b60405180910390f35b7f000000000000000000000000000000000000000000000000000000000000000081565b60008585604051610149929190610dd5565b604051809103902090507f000000000000000000000000000000000000000000000000000000000000000073ffffffffffffffffffffffffffffffffffffffff16631876eed98c8c8c8c8c878b8b8b6040518a63ffffffff1660e01b81526004016101bc99989796959493929190610e4a565b6020604051808303816000875af11580156101db573d6000803e3d6000fd5b505050506040513d601f19601f820116820180604052508101906101ff9190610efe565b610235576040517f500c44b400000000000000000000000000000000000000000000000000000000815260040160405180910390fd5b6102468a8a8a8a8a8a8a8a8a610626565b5050505050505050505050565b60007f000000000000000000000000000000000000000000000000000000000000000073ffffffffffffffffffffffffffffffffffffffff1663935b13f6846040518263ffffffff1660e01b81526004016102ae9190610f99565b602060405180830381865afa1580156102cb573d6000803e3d6000fd5b505050506040513d601f19601f820116820180604052508101906102ef9190610fd0565b90508073ffffffffffffffffffffffffffffffffffffffff1663095ea7b37f0000000000000000000000000000000000000000000000000000000000000000846040518363ffffffff1660e01b815260040161034c92919061100c565b6020604051808303816000875af115801561036b573d6000803e3d6000fd5b505050506040513d601f19601f8201168201806040525081019061038f9190610efe565b506000846040516020016103a39190611035565b60405160208183030381529060405290506000341115610456577f000000000000000000000000000000000000000000000000000000000000000073ffffffffffffffffffffffffffffffffffffffff1663c62c200234308a8a868a8a336040518963ffffffff1660e01b815260040161042397969594939291906110a5565b6000604051808303818588803b15801561043c57600080fd5b505af1158015610450573d6000803e3d6000fd5b50505050505b7f000000000000000000000000000000000000000000000000000000000000000073ffffffffffffffffffffffffffffffffffffffff1663b541708488888488886040518663ffffffff1660e01b81526004016104b7959493929190611130565b600060405180830381600087803b1580156104d157600080fd5b505af11580156104e5573d6000803e3d6000fd5b5050505050505050505050565b60008282604051610504929190610dd5565b604051809103902090507f000000000000000000000000000000000000000000000000000000000000000073ffffffffffffffffffffffffffffffffffffffff16635f6970c38989898989876040518763ffffffff1660e01b81526004016105719695949392919061119f565b6020604051808303816000875af1158015610590573d6000803e3d6000fd5b505050506040513d601f19601f820116820180604052508101906105b49190610efe565b6105ea576040517f500c44b400000000000000000000000000000000000000000000000000000000815260040160405180910390fd5b6105f8878787878787610765565b5050505050505050565b7f000000000000000000000000000000000000000000000000000000000000000081565b600085858101906106379190611234565b905060007f000000000000000000000000000000000000000000000000000000000000000073ffffffffffffffffffffffffffffffffffffffff1663935b13f686866040518363ffffffff1660e01b8152600401610696929190611261565b602060405180830381865afa1580156106b3573d6000803e3d6000fd5b505050506040513d601f19601f820116820180604052508101906106d79190610fd0565b90508073ffffffffffffffffffffffffffffffffffffffff1663a9059cbb83856040518363ffffffff1660e01b815260040161071492919061100c565b6020604051808303816000875af1158015610733573d6000803e3d6000fd5b505050506040513d601f19601f820116820180604052508101906107579190610efe565b505050505050505050505050565b505050505050565b600073ffffffffffffffffffffffffffffffffffffffff82169050919050565b6000819050919050565b60006107b26107ad6107a88461076d565b61078d565b61076d565b9050919050565b60006107c482610797565b9050919050565b60006107d6826107b9565b9050919050565b6107e6816107cb565b82525050565b600060208201905061080160008301846107dd565b92915050565b6000604051905090565b600080fd5b600080fd5b6000819050919050565b61082e8161081b565b811461083957600080fd5b50565b60008135905061084b81610825565b92915050565b600080fd5b600080fd5b600080fd5b60008083601f84011261087657610875610851565b5b8235905067ffffffffffffffff81111561089357610892610856565b5b6020830191508360018202830111156108af576108ae61085b565b5b9250929050565b60008083601f8401126108cc576108cb610851565b5b8235905067ffffffffffffffff8111156108e9576108e8610856565b5b6020830191508360018202830111156109055761090461085b565b5b9250929050565b6000819050919050565b61091f8161090c565b811461092a57600080fd5b50565b60008135905061093c81610916565b92915050565b60008060008060008060008060008060c08b8d03121561096557610964610811565b5b60006109738d828e0161083c565b9a505060208b013567ffffffffffffffff81111561099457610993610816565b5b6109a08d828e01610860565b995099505060408b013567ffffffffffffffff8111156109c3576109c2610816565b5b6109cf8d828e01610860565b975097505060608b013567ffffffffffffffff8111156109f2576109f1610816565b5b6109fe8d828e016108b6565b955095505060808b013567ffffffffffffffff811115610a2157610a20610816565b5b610a2d8d828e01610860565b935093505060a0610a408d828e0161092d565b9150509295989b9194979a5092959850565b600080fd5b6000601f19601f8301169050919050565b7f4e487b7100000000000000000000000000000000000000000000000000000000600052604160045260246000fd5b610aa082610a57565b810181811067ffffffffffffffff82111715610abf57610abe610a68565b5b80604052505050565b6000610ad2610807565b9050610ade8282610a97565b919050565b600067ffffffffffffffff821115610afe57610afd610a68565b5b610b0782610a57565b9050602081019050919050565b82818337600083830152505050565b6000610b36610b3184610ae3565b610ac8565b905082815260208101848484011115610b5257610b51610a52565b5b610b5d848285610b14565b509392505050565b600082601f830112610b7a57610b79610851565b5b8135610b8a848260208601610b23565b91505092915050565b6000610b9e8261076d565b9050919050565b610bae81610b93565b8114610bb957600080fd5b50565b600081359050610bcb81610ba5565b92915050565b600080600080600060a08688031215610bed57610bec610811565b5b600086013567ffffffffffffffff811115610c0b57610c0a610816565b5b610c1788828901610b65565b955050602086013567ffffffffffffffff811115610c3857610c37610816565b5b610c4488828901610b65565b9450506040610c5588828901610bbc565b935050606086013567ffffffffffffffff811115610c7657610c75610816565b5b610c8288828901610b65565b9250506080610c938882890161092d565b9150509295509295909350565b60008060008060008060006080888a031215610cbf57610cbe610811565b5b6000610ccd8a828b0161083c565b975050602088013567ffffffffffffffff811115610cee57610ced610816565b5b610cfa8a828b01610860565b9650965050604088013567ffffffffffffffff811115610d1d57610d1c610816565b5b610d298a828b01610860565b9450945050606088013567ffffffffffffffff811115610d4c57610d4b610816565b5b610d588a828b016108b6565b925092505092959891949750929550565b6000610d74826107b9565b9050919050565b610d8481610d69565b82525050565b6000602082019050610d9f6000830184610d7b565b92915050565b600081905092915050565b6000610dbc8385610da5565b9350610dc9838584610b14565b82840190509392505050565b6000610de2828486610db0565b91508190509392505050565b610df78161081b565b82525050565b600082825260208201905092915050565b6000610e1a8385610dfd565b9350610e27838584610b14565b610e3083610a57565b840190509392505050565b610e448161090c565b82525050565b600060c082019050610e5f600083018c610dee565b8181036020830152610e72818a8c610e0e565b90508181036040830152610e8781888a610e0e565b9050610e966060830187610dee565b8181036080830152610ea9818587610e0e565b9050610eb860a0830184610e3b565b9a9950505050505050505050565b60008115159050919050565b610edb81610ec6565b8114610ee657600080fd5b50565b600081519050610ef881610ed2565b92915050565b600060208284031215610f1457610f13610811565b5b6000610f2284828501610ee9565b91505092915050565b600081519050919050565b60005b83811015610f54578082015181840152602081019050610f39565b60008484015250505050565b6000610f6b82610f2b565b610f758185610dfd565b9350610f85818560208601610f36565b610f8e81610a57565b840191505092915050565b60006020820190508181036000830152610fb38184610f60565b905092915050565b600081519050610fca81610ba5565b92915050565b600060208284031215610fe657610fe5610811565b5b6000610ff484828501610fbb565b91505092915050565b61100681610b93565b82525050565b60006040820190506110216000830185610ffd565b61102e6020830184610e3b565b9392505050565b600060208201905061104a6000830184610ffd565b92915050565b600081519050919050565b600082825260208201905092915050565b600061107782611050565b611081818561105b565b9350611091818560208601610f36565b61109a81610a57565b840191505092915050565b600060e0820190506110ba600083018a610ffd565b81810360208301526110cc8189610f60565b905081810360408301526110e08188610f60565b905081810360608301526110f4818761106c565b905081810360808301526111088186610f60565b905061111760a0830185610e3b565b61112460c0830184610ffd565b98975050505050505050565b600060a082019050818103600083015261114a8188610f60565b9050818103602083015261115e8187610f60565b90508181036040830152611172818661106c565b905081810360608301526111868185610f60565b90506111956080830184610e3b565b9695505050505050565b60006080820190506111b46000830189610dee565b81810360208301526111c7818789610e0e565b905081810360408301526111dc818587610e0e565b90506111eb6060830184610dee565b979650505050505050565b60006112018261076d565b9050919050565b611211816111f6565b811461121c57600080fd5b50565b60008135905061122e81611208565b92915050565b60006020828403121561124a57611249610811565b5b60006112588482850161121f565b91505092915050565b6000602082019050818103600083015261127c818486610e0e565b9050939250505056fea264697066735822122066f52e8ce8ecd609f89e16b2ef48a266fc4a0da103215b41e986600a4f32270664736f6c63430008120033",
  "linkReferences": {},
  "deployedLinkReferences": {}
}