{
  "_format": "hh-sol-artifact-1",
  "contractName": "PhoneTransfer",
  "sourceName": "contracts/phone.sol",
  "abi": [
    {
      "inputs": [
        {
          "internalType": "address",
          "name": "gateway_",
          "type": "address"
        },
        {
          "internalType": "address",
          "name": "gasReceiver_",
          "type": "address"
        }
      ],
      "stateMutability": "nonpayable",
      "type": "constructor"
    },
    {
      "inputs": [],
      "name": "InvalidAddress",
      "type": "error"
    },
    {
      "inputs": [],
      "name": "NotApprovedByGateway",
      "type": "error"
    },
    {
      "anonymous": false,
      "inputs": [
        {
          "indexed": true,
          "internalType": "address",
          "name": "previousOwner",
          "type": "address"
        },
        {
          "indexed": true,
          "internalType": "address",
          "name": "newOwner",
          "type": "address"
        }
      ],
      "name": "OwnershipTransferred",
      "type": "event"
    },
    {
      "anonymous": false,
      "inputs": [
        {
          "indexed": false,
          "internalType": "uint256",
          "name": "transactionNo",
          "type": "uint256"
        },
        {
          "indexed": true,
          "internalType": "address",
          "name": "sender",
          "type": "address"
        },
        {
          "indexed": true,
          "internalType": "bytes32",
          "name": "receiver",
          "type": "bytes32"
        },
        {
          "indexed": false,
          "internalType": "contract IERC20",
          "name": "token",
          "type": "address"
        },
        {
          "indexed": false,
          "internalType": "uint256",
          "name": "amount",
          "type": "uint256"
        },
        {
          "indexed": false,
          "internalType": "uint256",
          "name": "date",
          "type": "uint256"
        }
      ],
      "name": "escrowPaymentEve",
      "type": "event"
    },
    {
      "anonymous": false,
      "inputs": [
        {
          "indexed": false,
          "internalType": "uint256",
          "name": "transactionNo",
          "type": "uint256"
        },
        {
          "indexed": true,
          "internalType": "address",
          "name": "sender",
          "type": "address"
        },
        {
          "indexed": true,
          "internalType": "bytes32",
          "name": "receiver",
          "type": "bytes32"
        },
        {
          "indexed": false,
          "internalType": "uint256",
          "name": "status",
          "type": "uint256"
        },
        {
          "indexed": false,
          "internalType": "uint256",
          "name": "date",
          "type": "uint256"
        }
      ],
      "name": "fullfillEscrowPaymentEve",
      "type": "event"
    },
    {
      "anonymous": false,
      "inputs": [
        {
          "indexed": false,
          "internalType": "uint256",
          "name": "transactionNo",
          "type": "uint256"
        },
        {
          "indexed": true,
          "internalType": "address",
          "name": "requestedBy",
          "type": "address"
        },
        {
          "indexed": true,
          "internalType": "address",
          "name": "requestedFrom",
          "type": "address"
        },
        {
          "indexed": false,
          "internalType": "uint256",
          "name": "status",
          "type": "uint256"
        },
        {
          "indexed": false,
          "internalType": "uint256",
          "name": "date",
          "type": "uint256"
        }
      ],
      "name": "fullfillRequestPaymentEve",
      "type": "event"
    },
    {
      "anonymous": false,
      "inputs": [
        {
          "indexed": false,
          "internalType": "uint256",
          "name": "transactionNo",
          "type": "uint256"
        },
        {
          "indexed": true,
          "internalType": "address",
          "name": "sender",
          "type": "address"
        },
        {
          "indexed": true,
          "internalType": "address",
          "name": "receiver",
          "type": "address"
        },
        {
          "indexed": false,
          "internalType": "contract IERC20",
          "name": "token",
          "type": "address"
        },
        {
          "indexed": false,
          "internalType": "uint256",
          "name": "amount",
          "type": "uint256"
        },
        {
          "indexed": true,
          "internalType": "bool",
          "name": "isCrossChain",
          "type": "bool"
        },
        {
          "indexed": false,
          "internalType": "uint256",
          "name": "date",
          "type": "uint256"
        }
      ],
      "name": "postPaymentEve",
      "type": "event"
    },
    {
      "anonymous": false,
      "inputs": [
        {
          "indexed": false,
          "internalType": "uint256",
          "name": "transactionNo",
          "type": "uint256"
        },
        {
          "indexed": true,
          "internalType": "address",
          "name": "sender",
          "type": "address"
        },
        {
          "indexed": true,
          "internalType": "address",
          "name": "receiver",
          "type": "address"
        },
        {
          "indexed": false,
          "internalType": "contract IERC20",
          "name": "token",
          "type": "address"
        },
        {
          "indexed": false,
          "internalType": "uint256",
          "name": "amount",
          "type": "uint256"
        },
        {
          "indexed": true,
          "internalType": "bool",
          "name": "isCrosschain",
          "type": "bool"
        },
        {
          "indexed": false,
          "internalType": "uint256",
          "name": "date",
          "type": "uint256"
        }
      ],
      "name": "prePaymentEve",
      "type": "event"
    },
    {
      "anonymous": false,
      "inputs": [
        {
          "indexed": false,
          "internalType": "uint256",
          "name": "transactionNo",
          "type": "uint256"
        },
        {
          "indexed": true,
          "internalType": "address",
          "name": "requestedBy",
          "type": "address"
        },
        {
          "indexed": true,
          "internalType": "address",
          "name": "requestedFrom",
          "type": "address"
        },
        {
          "indexed": false,
          "internalType": "contract IERC20",
          "name": "token",
          "type": "address"
        },
        {
          "indexed": false,
          "internalType": "uint256",
          "name": "amount",
          "type": "uint256"
        },
        {
          "indexed": false,
          "internalType": "uint256",
          "name": "date",
          "type": "uint256"
        }
      ],
      "name": "requestPaymentEve",
      "type": "event"
    },
    {
      "inputs": [
        {
          "internalType": "bytes32",
          "name": "commandId",
          "type": "bytes32"
        },
        {
          "internalType": "string",
          "name": "sourceChain",
          "type": "string"
        },
        {
          "internalType": "string",
          "name": "sourceAddress",
          "type": "string"
        },
        {
          "internalType": "bytes",
          "name": "payload",
          "type": "bytes"
        }
      ],
      "name": "execute",
      "outputs": [],
      "stateMutability": "nonpayable",
      "type": "function"
    },
    {
      "inputs": [
        {
          "internalType": "bytes32",
          "name": "commandId",
          "type": "bytes32"
        },
        {
          "internalType": "string",
          "name": "sourceChain",
          "type": "string"
        },
        {
          "internalType": "string",
          "name": "sourceAddress",
          "type": "string"
        },
        {
          "internalType": "bytes",
          "name": "payload",
          "type": "bytes"
        },
        {
          "internalType": "string",
          "name": "tokenSymbol",
          "type": "string"
        },
        {
          "internalType": "uint256",
          "name": "amount",
          "type": "uint256"
        }
      ],
      "name": "executeWithToken",
      "outputs": [],
      "stateMutability": "nonpayable",
      "type": "function"
    },
    {
      "inputs": [
        {
          "internalType": "uint256",
          "name": "transactionNo",
          "type": "uint256"
        },
        {
          "internalType": "enum PhoneTransfer.Action",
          "name": "status",
          "type": "uint8"
        }
      ],
      "name": "fullFillEscrowPayment",
      "outputs": [],
      "stateMutability": "nonpayable",
      "type": "function"
    },
    {
      "inputs": [
        {
          "internalType": "uint256",
          "name": "transactionNo",
          "type": "uint256"
        },
        {
          "internalType": "uint256",
          "name": "status",
          "type": "uint256"
        }
      ],
      "name": "fullFillRequestPayment",
      "outputs": [],
      "stateMutability": "nonpayable",
      "type": "function"
    },
    {
      "inputs": [],
      "name": "gasService",
      "outputs": [
        {
          "internalType": "contract IAxelarGasService",
          "name": "",
          "type": "address"
        }
      ],
      "stateMutability": "view",
      "type": "function"
    },
    {
      "inputs": [],
      "name": "gateway",
      "outputs": [
        {
          "internalType": "contract IAxelarGateway",
          "name": "",
          "type": "address"
        }
      ],
      "stateMutability": "view",
      "type": "function"
    },
    {
      "inputs": [
        {
          "internalType": "address",
          "name": "to",
          "type": "address"
        },
        {
          "internalType": "string",
          "name": "symbol",
          "type": "string"
        },
        {
          "internalType": "uint256",
          "name": "amount",
          "type": "uint256"
        },
        {
          "internalType": "uint256",
          "name": "destinationChainID",
          "type": "uint256"
        }
      ],
      "name": "handleCrossChainTransfer",
      "outputs": [],
      "stateMutability": "payable",
      "type": "function"
    },
    {
      "inputs": [],
      "name": "owner",
      "outputs": [
        {
          "internalType": "address",
          "name": "",
          "type": "address"
        }
      ],
      "stateMutability": "view",
      "type": "function"
    },
    {
      "inputs": [],
      "name": "renounceOwnership",
      "outputs": [],
      "stateMutability": "nonpayable",
      "type": "function"
    },
    {
      "inputs": [
        {
          "internalType": "address",
          "name": "requestedFrom",
          "type": "address"
        },
        {
          "internalType": "address",
          "name": "requestedBy",
          "type": "address"
        },
        {
          "internalType": "address",
          "name": "tokenAddr",
          "type": "address"
        },
        {
          "internalType": "uint256",
          "name": "amount",
          "type": "uint256"
        }
      ],
      "name": "requestPayment",
      "outputs": [],
      "stateMutability": "nonpayable",
      "type": "function"
    },
    {
      "inputs": [
        {
          "internalType": "uint256",
          "name": "transactionNo",
          "type": "uint256"
        },
        {
          "internalType": "string",
          "name": "unregisteredReceiver",
          "type": "string"
        },
        {
          "internalType": "address",
          "name": "updatePubKeyOfUnregisteredReceiver",
          "type": "address"
        }
      ],
      "name": "resolvePhonetoPublicAddress",
      "outputs": [],
      "stateMutability": "nonpayable",
      "type": "function"
    },
    {
      "inputs": [
        {
          "internalType": "bytes32",
          "name": "unregisteredReceiver",
          "type": "bytes32"
        },
        {
          "internalType": "address",
          "name": "token",
          "type": "address"
        },
        {
          "internalType": "uint256",
          "name": "amount",
          "type": "uint256"
        }
      ],
      "name": "sendEcrowPayment",
      "outputs": [],
      "stateMutability": "nonpayable",
      "type": "function"
    },
    {
      "inputs": [
        {
          "internalType": "address",
          "name": "newOwner",
          "type": "address"
        }
      ],
      "name": "transferOwnership",
      "outputs": [],
      "stateMutability": "nonpayable",
      "type": "function"
    },
    {
      "inputs": [
        {
          "internalType": "address",
          "name": "to",
          "type": "address"
        },
        {
          "internalType": "address",
          "name": "tokenAddr",
          "type": "address"
        },
        {
          "internalType": "uint256",
          "name": "amount",
          "type": "uint256"
        }
      ],
      "name": "transferTokens",
      "outputs": [],
      "stateMutability": "nonpayable",
      "type": "function"
    },
    {
      "inputs": [
        {
          "internalType": "uint256",
          "name": "chainID",
          "type": "uint256"
        },
        {
          "internalType": "string",
          "name": "contractAddress",
          "type": "string"
        }
      ],
      "name": "updateMultiChainContractAddress",
      "outputs": [],
      "stateMutability": "nonpayable",
      "type": "function"
    },
    {
      "inputs": [
        {
          "internalType": "uint256",
          "name": "chainID",
          "type": "uint256"
        },
        {
          "internalType": "string",
          "name": "chainName",
          "type": "string"
        }
      ],
      "name": "updateMultiChainNamesResolver",
      "outputs": [],
      "stateMutability": "nonpayable",
      "type": "function"
    }
  ],
  "bytecode": "0x60c06040523480156200001157600080fd5b50604051620042f3380380620042f3833981810160405281019062000037919062000266565b81620000586200004c6200013060201b60201c565b6200013860201b60201c565b600073ffffffffffffffffffffffffffffffffffffffff168173ffffffffffffffffffffffffffffffffffffffff1603620000bf576040517fe6c4247b00000000000000000000000000000000000000000000000000000000815260040160405180910390fd5b8073ffffffffffffffffffffffffffffffffffffffff1660808173ffffffffffffffffffffffffffffffffffffffff1681525050508073ffffffffffffffffffffffffffffffffffffffff1660a08173ffffffffffffffffffffffffffffffffffffffff16815250505050620002ad565b600033905090565b60008060009054906101000a900473ffffffffffffffffffffffffffffffffffffffff169050816000806101000a81548173ffffffffffffffffffffffffffffffffffffffff021916908373ffffffffffffffffffffffffffffffffffffffff1602179055508173ffffffffffffffffffffffffffffffffffffffff168173ffffffffffffffffffffffffffffffffffffffff167f8be0079c531659141344cd1fd0a4f28419497f9722a3daafe3b4186f6b6457e060405160405180910390a35050565b600080fd5b600073ffffffffffffffffffffffffffffffffffffffff82169050919050565b60006200022e8262000201565b9050919050565b620002408162000221565b81146200024c57600080fd5b50565b600081519050620002608162000235565b92915050565b6000806040838503121562000280576200027f620001fc565b5b600062000290858286016200024f565b9250506020620002a3858286016200024f565b9150509250929050565b60805160a051613fef620003046000396000818161100f01526122cb0152600081816106f00152818161073001528181610f1b01528181611f14015281816120d30152818161236401526125a20152613fef6000f3fe6080604052600436106100f35760003560e01c80638da5cb5b1161008a578063a391425c11610059578063a391425c146102d8578063a64b6e5f14610301578063b62622691461032a578063f2fde38b14610346576100f3565b80638da5cb5b146102325780638deb1f8c1461025d5780639285ff581461028657806398e8ce1d146102af576100f3565b806332e2d981116100c657806332e2d9811461019e57806349160658146101c75780636a22d8cc146101f0578063715018a61461021b576100f3565b80630da74b38146100f8578063116191b6146101215780631a98b2e01461014c5780632f94c4f714610175575b600080fd5b34801561010457600080fd5b5061011f600480360381019061011a9190612a35565b61036f565b005b34801561012d57600080fd5b506101366106ee565b6040516101439190612b03565b60405180910390f35b34801561015857600080fd5b50610173600480360381019061016e9190612c0a565b610712565b005b34801561018157600080fd5b5061019c60048036038101906101979190612d1a565b61082e565b005b3480156101aa57600080fd5b506101c560048036038101906101c09190612d9b565b61085b565b005b3480156101d357600080fd5b506101ee60048036038101906101e99190612ddb565b610efd565b005b3480156101fc57600080fd5b5061020561100d565b6040516102129190612ec5565b60405180910390f35b34801561022757600080fd5b50610230611031565b005b34801561023e57600080fd5b50610247611045565b6040516102549190612eef565b60405180910390f35b34801561026957600080fd5b50610284600480360381019061027f9190612f0a565b61106e565b005b34801561029257600080fd5b506102ad60048036038101906102a89190612f5d565b611458565b005b3480156102bb57600080fd5b506102d660048036038101906102d19190612d1a565b611a04565b005b3480156102e457600080fd5b506102ff60048036038101906102fa9190612f9d565b611a31565b005b34801561030d57600080fd5b5061032860048036038101906103239190613004565b611c3f565b005b610344600480360381019061033f9190613057565b611f10565b005b34801561035257600080fd5b5061036d600480360381019061036891906130da565b612483565b005b610377612506565b60006003600085815260200190815260200160002090506000836040516020016103a19190613178565b604051602081830303815290604052805190602001209050816001015481146103ff576040517f08c379a00000000000000000000000000000000000000000000000000000000081526004016103f6906131ec565b60405180910390fd5b8160040154600460008460030160009054906101000a900473ffffffffffffffffffffffffffffffffffffffff1673ffffffffffffffffffffffffffffffffffffffff1673ffffffffffffffffffffffffffffffffffffffff16815260200190815260200160002060008460000160009054906101000a900473ffffffffffffffffffffffffffffffffffffffff1673ffffffffffffffffffffffffffffffffffffffff1673ffffffffffffffffffffffffffffffffffffffff16815260200190815260200160002054101561050a576040517f08c379a00000000000000000000000000000000000000000000000000000000081526004016105019061327e565b60405180910390fd5b828260020160006101000a81548173ffffffffffffffffffffffffffffffffffffffff021916908373ffffffffffffffffffffffffffffffffffffffff1602179055508160040154600460008460030160009054906101000a900473ffffffffffffffffffffffffffffffffffffffff1673ffffffffffffffffffffffffffffffffffffffff1673ffffffffffffffffffffffffffffffffffffffff16815260200190815260200160002060008460000160009054906101000a900473ffffffffffffffffffffffffffffffffffffffff1673ffffffffffffffffffffffffffffffffffffffff1673ffffffffffffffffffffffffffffffffffffffff168152602001908152602001600020600082825461062591906132cd565b925050819055508160040154600460008460030160009054906101000a900473ffffffffffffffffffffffffffffffffffffffff1673ffffffffffffffffffffffffffffffffffffffff1673ffffffffffffffffffffffffffffffffffffffff16815260200190815260200160002060008573ffffffffffffffffffffffffffffffffffffffff1673ffffffffffffffffffffffffffffffffffffffff16815260200190815260200160002060008282546106e09190613301565b925050819055505050505050565b7f000000000000000000000000000000000000000000000000000000000000000081565b60008585604051610724929190613365565b604051809103902090507f000000000000000000000000000000000000000000000000000000000000000073ffffffffffffffffffffffffffffffffffffffff16631876eed98c8c8c8c8c878b8b8b6040518a63ffffffff1660e01b8152600401610797999897969594939291906133c9565b6020604051808303816000875af11580156107b6573d6000803e3d6000fd5b505050506040513d601f19601f820116820180604052508101906107da919061347d565b610810576040517f500c44b400000000000000000000000000000000000000000000000000000000815260040160405180910390fd5b6108218a8a8a8a8a8a8a8a8a612584565b5050505050505050505050565b610836612506565b8060066000848152602001908152602001600020908161085691906136ac565b505050565b6000600360008481526020019081526020016000206040518060e00160405290816000820160009054906101000a900473ffffffffffffffffffffffffffffffffffffffff1673ffffffffffffffffffffffffffffffffffffffff1673ffffffffffffffffffffffffffffffffffffffff168152602001600182015481526020016002820160009054906101000a900473ffffffffffffffffffffffffffffffffffffffff1673ffffffffffffffffffffffffffffffffffffffff1673ffffffffffffffffffffffffffffffffffffffff1681526020016003820160009054906101000a900473ffffffffffffffffffffffffffffffffffffffff1673ffffffffffffffffffffffffffffffffffffffff1673ffffffffffffffffffffffffffffffffffffffff168152602001600482015481526020016005820154815260200160068201548152505090503373ffffffffffffffffffffffffffffffffffffffff16816000015173ffffffffffffffffffffffffffffffffffffffff161480610a4f57503373ffffffffffffffffffffffffffffffffffffffff16816040015173ffffffffffffffffffffffffffffffffffffffff161480610a4e5750600073ffffffffffffffffffffffffffffffffffffffff16816040015173ffffffffffffffffffffffffffffffffffffffff16145b5b8015610b2357503373ffffffffffffffffffffffffffffffffffffffff16816000015173ffffffffffffffffffffffffffffffffffffffff16148015610ab9575060006003811115610aa457610aa361377e565b5b826003811115610ab757610ab661377e565b5b145b80610b2257503373ffffffffffffffffffffffffffffffffffffffff16816040015173ffffffffffffffffffffffffffffffffffffffff16148015610b215750600380811115610b0c57610b0b61377e565b5b826003811115610b1f57610b1e61377e565b5b145b5b5b610b62576040517f08c379a0000000000000000000000000000000000000000000000000000000008152600401610b59906137f9565b60405180910390fd5b806080015160046000836060015173ffffffffffffffffffffffffffffffffffffffff1673ffffffffffffffffffffffffffffffffffffffff16815260200190815260200160002060003373ffffffffffffffffffffffffffffffffffffffff1673ffffffffffffffffffffffffffffffffffffffff168152602001908152602001600020541015610c29576040517f08c379a0000000000000000000000000000000000000000000000000000000008152600401610c2090613865565b60405180910390fd5b600380811115610c3c57610c3b61377e565b5b826003811115610c4f57610c4e61377e565b5b1480610c7f575060006003811115610c6a57610c6961377e565b5b826003811115610c7d57610c7c61377e565b5b145b610cbe576040517f08c379a0000000000000000000000000000000000000000000000000000000008152600401610cb5906138d1565b60405180910390fd5b806080015160046000836060015173ffffffffffffffffffffffffffffffffffffffff1673ffffffffffffffffffffffffffffffffffffffff16815260200190815260200160002060003373ffffffffffffffffffffffffffffffffffffffff1673ffffffffffffffffffffffffffffffffffffffff1681526020019081526020016000206000828254610d5291906132cd565b92505081905550806060015173ffffffffffffffffffffffffffffffffffffffff1663a9059cbb3383608001516040518363ffffffff1660e01b8152600401610d9c9291906138f1565b6020604051808303816000875af1158015610dbb573d6000803e3d6000fd5b505050506040513d601f19601f82011682018060405250810190610ddf919061347d565b5060036000848152602001908152602001600020600080820160006101000a81549073ffffffffffffffffffffffffffffffffffffffff021916905560018201600090556002820160006101000a81549073ffffffffffffffffffffffffffffffffffffffff02191690556003820160006101000a81549073ffffffffffffffffffffffffffffffffffffffff021916905560048201600090556005820160009055600682016000905550508060200151816000015173ffffffffffffffffffffffffffffffffffffffff167f779b4de57a5a770825f7c0acec0306c8d9d25acfdf2a3911156bdbe3027ed41d85856003811115610ee057610edf61377e565b5b42604051610ef09392919061391a565b60405180910390a3505050565b60008282604051610f0f929190613365565b604051809103902090507f000000000000000000000000000000000000000000000000000000000000000073ffffffffffffffffffffffffffffffffffffffff16635f6970c38989898989876040518763ffffffff1660e01b8152600401610f7c96959493929190613951565b6020604051808303816000875af1158015610f9b573d6000803e3d6000fd5b505050506040513d601f19601f82011682018060405250810190610fbf919061347d565b610ff5576040517f500c44b400000000000000000000000000000000000000000000000000000000815260040160405180910390fd5b61100387878787878761265a565b5050505050505050565b7f000000000000000000000000000000000000000000000000000000000000000081565b611039612506565b6110436000612662565b565b60008060009054906101000a900473ffffffffffffffffffffffffffffffffffffffff16905090565b808273ffffffffffffffffffffffffffffffffffffffff1663dd62ed3e33306040518363ffffffff1660e01b81526004016110aa9291906139a8565b602060405180830381865afa1580156110c7573d6000803e3d6000fd5b505050506040513d601f19601f820116820180604052508101906110eb91906139e6565b101561112c576040517f08c379a000000000000000000000000000000000000000000000000000000000815260040161112390613a85565b60405180910390fd5b60006040518060e001604052803373ffffffffffffffffffffffffffffffffffffffff168152602001858152602001600073ffffffffffffffffffffffffffffffffffffffff1681526020018473ffffffffffffffffffffffffffffffffffffffff1681526020018381526020016111a46001612726565b81526020014281525090506111b96001612734565b80600360008360a00151815260200190815260200160002060008201518160000160006101000a81548173ffffffffffffffffffffffffffffffffffffffff021916908373ffffffffffffffffffffffffffffffffffffffff1602179055506020820151816001015560408201518160020160006101000a81548173ffffffffffffffffffffffffffffffffffffffff021916908373ffffffffffffffffffffffffffffffffffffffff16021790555060608201518160030160006101000a81548173ffffffffffffffffffffffffffffffffffffffff021916908373ffffffffffffffffffffffffffffffffffffffff1602179055506080820151816004015560a0820151816005015560c08201518160060155905050806060015173ffffffffffffffffffffffffffffffffffffffff166323b872dd3330856040518463ffffffff1660e01b815260040161131293929190613aa5565b6020604051808303816000875af1158015611331573d6000803e3d6000fd5b505050506040513d601f19601f82011682018060405250810190611355919061347d565b5081600460008573ffffffffffffffffffffffffffffffffffffffff1673ffffffffffffffffffffffffffffffffffffffff16815260200190815260200160002060003373ffffffffffffffffffffffffffffffffffffffff1673ffffffffffffffffffffffffffffffffffffffff16815260200190815260200160002060008282546113e29190613301565b925050819055508060200151816000015173ffffffffffffffffffffffffffffffffffffffff167f7f581ce41cb1110cf5e523ec5498f392342a7d40e76fc92a86e3df436736b5de8360a00151846060015185608001514260405161144a9493929190613afd565b60405180910390a350505050565b60006002600084815260200190815260200160002090508060000160009054906101000a900473ffffffffffffffffffffffffffffffffffffffff1673ffffffffffffffffffffffffffffffffffffffff163373ffffffffffffffffffffffffffffffffffffffff16148061151c57508060010160009054906101000a900473ffffffffffffffffffffffffffffffffffffffff1673ffffffffffffffffffffffffffffffffffffffff163373ffffffffffffffffffffffffffffffffffffffff16145b61155b576040517f08c379a000000000000000000000000000000000000000000000000000000000815260040161155290613b8e565b60405180910390fd5b6002600381111561156f5761156e61377e565b5b821115801561166457508060000160009054906101000a900473ffffffffffffffffffffffffffffffffffffffff1673ffffffffffffffffffffffffffffffffffffffff163373ffffffffffffffffffffffffffffffffffffffff161480156115eb5750600160038111156115e7576115e661377e565b5b8210155b8061166357508060010160009054906101000a900473ffffffffffffffffffffffffffffffffffffffff1673ffffffffffffffffffffffffffffffffffffffff163373ffffffffffffffffffffffffffffffffffffffff1614801561166257506000600381111561165f5761165e61377e565b5b82145b5b5b6116a3576040517f08c379a000000000000000000000000000000000000000000000000000000000815260040161169a90613bfa565b60405180910390fd5b600182036118a75780600301548160020160009054906101000a900473ffffffffffffffffffffffffffffffffffffffff1673ffffffffffffffffffffffffffffffffffffffff1663dd62ed3e8360000160009054906101000a900473ffffffffffffffffffffffffffffffffffffffff16306040518363ffffffff1660e01b81526004016117339291906139a8565b602060405180830381865afa158015611750573d6000803e3d6000fd5b505050506040513d601f19601f8201168201806040525081019061177491906139e6565b10156117b5576040517f08c379a00000000000000000000000000000000000000000000000000000000081526004016117ac90613a85565b60405180910390fd5b8060020160009054906101000a900473ffffffffffffffffffffffffffffffffffffffff1673ffffffffffffffffffffffffffffffffffffffff166323b872dd8260000160009054906101000a900473ffffffffffffffffffffffffffffffffffffffff168360010160009054906101000a900473ffffffffffffffffffffffffffffffffffffffff1684600301546040518463ffffffff1660e01b815260040161186293929190613aa5565b6020604051808303816000875af1158015611881573d6000803e3d6000fd5b505050506040513d601f19601f820116820180604052508101906118a5919061347d565b505b8060000160009054906101000a900473ffffffffffffffffffffffffffffffffffffffff1673ffffffffffffffffffffffffffffffffffffffff168160010160009054906101000a900473ffffffffffffffffffffffffffffffffffffffff1673ffffffffffffffffffffffffffffffffffffffff167f3e51b0c6acf5e7fe6ee322113d5b1cb48e062dee6816c1fcb479fcfa3a95fbd6836004015485426040516119549392919061391a565b60405180910390a360026000848152602001908152602001600020600080820160006101000a81549073ffffffffffffffffffffffffffffffffffffffff02191690556001820160006101000a81549073ffffffffffffffffffffffffffffffffffffffff02191690556002820160006101000a81549073ffffffffffffffffffffffffffffffffffffffff02191690556003820160009055600482016000905560058201600090555050505050565b611a0c612506565b80600560008481526020019081526020016000209081611a2c91906136ac565b505050565b60006040518060c001604052808673ffffffffffffffffffffffffffffffffffffffff1681526020018573ffffffffffffffffffffffffffffffffffffffff1681526020018473ffffffffffffffffffffffffffffffffffffffff168152602001838152602001611aa26001612726565b8152602001428152509050611ab76001612734565b80600260008360800151815260200190815260200160002060008201518160000160006101000a81548173ffffffffffffffffffffffffffffffffffffffff021916908373ffffffffffffffffffffffffffffffffffffffff16021790555060208201518160010160006101000a81548173ffffffffffffffffffffffffffffffffffffffff021916908373ffffffffffffffffffffffffffffffffffffffff16021790555060408201518160020160006101000a81548173ffffffffffffffffffffffffffffffffffffffff021916908373ffffffffffffffffffffffffffffffffffffffff160217905550606082015181600301556080820151816004015560a082015181600501559050508473ffffffffffffffffffffffffffffffffffffffff168473ffffffffffffffffffffffffffffffffffffffff167f930b58724ac47c6e01f92ac820d986ebaaf1488a8338817440a8b68254958fe4836080015184604001518642604051611c309493929190613afd565b60405180910390a35050505050565b60006040518060c001604052803373ffffffffffffffffffffffffffffffffffffffff1681526020018573ffffffffffffffffffffffffffffffffffffffff1681526020018473ffffffffffffffffffffffffffffffffffffffff168152602001838152602001611cb06001612726565b8152602001428152509050611cc56001612734565b60001515816020015173ffffffffffffffffffffffffffffffffffffffff16826000015173ffffffffffffffffffffffffffffffffffffffff167fadeb58e90508bc79ac6d3b47f7deafa3232e35361e68af0c050f3fc705a3bed184608001518560400151866060015142604051611d409493929190613afd565b60405180910390a4818373ffffffffffffffffffffffffffffffffffffffff1663dd62ed3e33306040518363ffffffff1660e01b8152600401611d849291906139a8565b602060405180830381865afa158015611da1573d6000803e3d6000fd5b505050506040513d601f19601f82011682018060405250810190611dc591906139e6565b1015611e06576040517f08c379a0000000000000000000000000000000000000000000000000000000008152600401611dfd90613a85565b60405180910390fd5b8273ffffffffffffffffffffffffffffffffffffffff166323b872dd3386856040518463ffffffff1660e01b8152600401611e4393929190613aa5565b6020604051808303816000875af1158015611e62573d6000803e3d6000fd5b505050506040513d601f19601f82011682018060405250810190611e86919061347d565b5060001515816020015173ffffffffffffffffffffffffffffffffffffffff16826000015173ffffffffffffffffffffffffffffffffffffffff167fe853dfee7c97e337b35ee9b39d197abff035549e8de1d09b2019279c40c0798384608001518560400151866060015142604051611f029493929190613afd565b60405180910390a450505050565b60007f000000000000000000000000000000000000000000000000000000000000000073ffffffffffffffffffffffffffffffffffffffff1663935b13f6856040518263ffffffff1660e01b8152600401611f6b9190613c53565b602060405180830381865afa158015611f88573d6000803e3d6000fd5b505050506040513d601f19601f82011682018060405250810190611fac9190613c8a565b905060006040518060c001604052803373ffffffffffffffffffffffffffffffffffffffff1681526020018773ffffffffffffffffffffffffffffffffffffffff1681526020018373ffffffffffffffffffffffffffffffffffffffff16815260200185815260200161201f6001612726565b81526020014281525090506120346001612734565b8173ffffffffffffffffffffffffffffffffffffffff166323b872dd3388876040518463ffffffff1660e01b815260040161207193929190613aa5565b6020604051808303816000875af1158015612090573d6000803e3d6000fd5b505050506040513d601f19601f820116820180604052508101906120b4919061347d565b508173ffffffffffffffffffffffffffffffffffffffff1663095ea7b37f0000000000000000000000000000000000000000000000000000000000000000866040518363ffffffff1660e01b81526004016121109291906138f1565b6020604051808303816000875af115801561212f573d6000803e3d6000fd5b505050506040513d601f19601f82011682018060405250810190612153919061347d565b5060003387836080015160405160200161216f93929190613aa5565b604051602081830303815290604052905060006006600086815260200190815260200160002080546121a0906134d9565b80601f01602080910402602001604051908101604052809291908181526020018280546121cc906134d9565b80156122195780601f106121ee57610100808354040283529160200191612219565b820191906000526020600020905b8154815290600101906020018083116121fc57829003601f168201915b505050505090506000600560008781526020019081526020016000208054612240906134d9565b80601f016020809104026020016040519081016040528092919081815260200182805461226c906134d9565b80156122b95780601f1061228e576101008083540402835291602001916122b9565b820191906000526020600020905b81548152906001019060200180831161229c57829003601f168201915b505050505090506000341115612362577f000000000000000000000000000000000000000000000000000000000000000073ffffffffffffffffffffffffffffffffffffffff1663c62c200234308585888e8e336040518963ffffffff1660e01b815260040161232f9796959493929190613d0c565b6000604051808303818588803b15801561234857600080fd5b505af115801561235c573d6000803e3d6000fd5b50505050505b7f000000000000000000000000000000000000000000000000000000000000000073ffffffffffffffffffffffffffffffffffffffff1663b54170848383868c8c6040518663ffffffff1660e01b81526004016123c3959493929190613d97565b600060405180830381600087803b1580156123dd57600080fd5b505af11580156123f1573d6000803e3d6000fd5b5050505060011515846020015173ffffffffffffffffffffffffffffffffffffffff16856000015173ffffffffffffffffffffffffffffffffffffffff167fadeb58e90508bc79ac6d3b47f7deafa3232e35361e68af0c050f3fc705a3bed1876080015188604001518960600151426040516124709493929190613afd565b60405180910390a4505050505050505050565b61248b612506565b600073ffffffffffffffffffffffffffffffffffffffff168173ffffffffffffffffffffffffffffffffffffffff16036124fa576040517f08c379a00000000000000000000000000000000000000000000000000000000081526004016124f190613e78565b60405180910390fd5b61250381612662565b50565b61250e61274a565b73ffffffffffffffffffffffffffffffffffffffff1661252c611045565b73ffffffffffffffffffffffffffffffffffffffff1614612582576040517f08c379a000000000000000000000000000000000000000000000000000000000815260040161257990613ee4565b60405180910390fd5b565b600080600087878101906125989190613f42565b92509250925060007f000000000000000000000000000000000000000000000000000000000000000073ffffffffffffffffffffffffffffffffffffffff1663935b13f688886040518363ffffffff1660e01b81526004016125fb929190613f95565b602060405180830381865afa158015612618573d6000803e3d6000fd5b505050506040513d601f19601f8201168201806040525081019061263c9190613c8a565b905061264b8185858589612752565b50505050505050505050505050565b505050505050565b60008060009054906101000a900473ffffffffffffffffffffffffffffffffffffffff169050816000806101000a81548173ffffffffffffffffffffffffffffffffffffffff021916908373ffffffffffffffffffffffffffffffffffffffff1602179055508173ffffffffffffffffffffffffffffffffffffffff168173ffffffffffffffffffffffffffffffffffffffff167f8be0079c531659141344cd1fd0a4f28419497f9722a3daafe3b4186f6b6457e060405160405180910390a35050565b600081600001549050919050565b6001816000016000828254019250508190555050565b600033905090565b8473ffffffffffffffffffffffffffffffffffffffff1663a9059cbb85836040518363ffffffff1660e01b815260040161278d9291906138f1565b6020604051808303816000875af11580156127ac573d6000803e3d6000fd5b505050506040513d601f19601f820116820180604052508101906127d0919061347d565b50600115158473ffffffffffffffffffffffffffffffffffffffff168473ffffffffffffffffffffffffffffffffffffffff167fe853dfee7c97e337b35ee9b39d197abff035549e8de1d09b2019279c40c07983858986426040516128389493929190613afd565b60405180910390a45050505050565b6000604051905090565b600080fd5b600080fd5b6000819050919050565b61286e8161285b565b811461287957600080fd5b50565b60008135905061288b81612865565b92915050565b600080fd5b600080fd5b6000601f19601f8301169050919050565b7f4e487b7100000000000000000000000000000000000000000000000000000000600052604160045260246000fd5b6128e48261289b565b810181811067ffffffffffffffff82111715612903576129026128ac565b5b80604052505050565b6000612916612847565b905061292282826128db565b919050565b600067ffffffffffffffff821115612942576129416128ac565b5b61294b8261289b565b9050602081019050919050565b82818337600083830152505050565b600061297a61297584612927565b61290c565b90508281526020810184848401111561299657612995612896565b5b6129a1848285612958565b509392505050565b600082601f8301126129be576129bd612891565b5b81356129ce848260208601612967565b91505092915050565b600073ffffffffffffffffffffffffffffffffffffffff82169050919050565b6000612a02826129d7565b9050919050565b612a12816129f7565b8114612a1d57600080fd5b50565b600081359050612a2f81612a09565b92915050565b600080600060608486031215612a4e57612a4d612851565b5b6000612a5c8682870161287c565b935050602084013567ffffffffffffffff811115612a7d57612a7c612856565b5b612a89868287016129a9565b9250506040612a9a86828701612a20565b9150509250925092565b6000819050919050565b6000612ac9612ac4612abf846129d7565b612aa4565b6129d7565b9050919050565b6000612adb82612aae565b9050919050565b6000612aed82612ad0565b9050919050565b612afd81612ae2565b82525050565b6000602082019050612b186000830184612af4565b92915050565b6000819050919050565b612b3181612b1e565b8114612b3c57600080fd5b50565b600081359050612b4e81612b28565b92915050565b600080fd5b600080fd5b60008083601f840112612b7457612b73612891565b5b8235905067ffffffffffffffff811115612b9157612b90612b54565b5b602083019150836001820283011115612bad57612bac612b59565b5b9250929050565b60008083601f840112612bca57612bc9612891565b5b8235905067ffffffffffffffff811115612be757612be6612b54565b5b602083019150836001820283011115612c0357612c02612b59565b5b9250929050565b60008060008060008060008060008060c08b8d031215612c2d57612c2c612851565b5b6000612c3b8d828e01612b3f565b9a505060208b013567ffffffffffffffff811115612c5c57612c5b612856565b5b612c688d828e01612b5e565b995099505060408b013567ffffffffffffffff811115612c8b57612c8a612856565b5b612c978d828e01612b5e565b975097505060608b013567ffffffffffffffff811115612cba57612cb9612856565b5b612cc68d828e01612bb4565b955095505060808b013567ffffffffffffffff811115612ce957612ce8612856565b5b612cf58d828e01612b5e565b935093505060a0612d088d828e0161287c565b9150509295989b9194979a5092959850565b60008060408385031215612d3157612d30612851565b5b6000612d3f8582860161287c565b925050602083013567ffffffffffffffff811115612d6057612d5f612856565b5b612d6c858286016129a9565b9150509250929050565b60048110612d8357600080fd5b50565b600081359050612d9581612d76565b92915050565b60008060408385031215612db257612db1612851565b5b6000612dc08582860161287c565b9250506020612dd185828601612d86565b9150509250929050565b60008060008060008060006080888a031215612dfa57612df9612851565b5b6000612e088a828b01612b3f565b975050602088013567ffffffffffffffff811115612e2957612e28612856565b5b612e358a828b01612b5e565b9650965050604088013567ffffffffffffffff811115612e5857612e57612856565b5b612e648a828b01612b5e565b9450945050606088013567ffffffffffffffff811115612e8757612e86612856565b5b612e938a828b01612bb4565b925092505092959891949750929550565b6000612eaf82612ad0565b9050919050565b612ebf81612ea4565b82525050565b6000602082019050612eda6000830184612eb6565b92915050565b612ee9816129f7565b82525050565b6000602082019050612f046000830184612ee0565b92915050565b600080600060608486031215612f2357612f22612851565b5b6000612f3186828701612b3f565b9350506020612f4286828701612a20565b9250506040612f538682870161287c565b9150509250925092565b60008060408385031215612f7457612f73612851565b5b6000612f828582860161287c565b9250506020612f938582860161287c565b9150509250929050565b60008060008060808587031215612fb757612fb6612851565b5b6000612fc587828801612a20565b9450506020612fd687828801612a20565b9350506040612fe787828801612a20565b9250506060612ff88782880161287c565b91505092959194509250565b60008060006060848603121561301d5761301c612851565b5b600061302b86828701612a20565b935050602061303c86828701612a20565b925050604061304d8682870161287c565b9150509250925092565b6000806000806080858703121561307157613070612851565b5b600061307f87828801612a20565b945050602085013567ffffffffffffffff8111156130a05761309f612856565b5b6130ac878288016129a9565b93505060406130bd8782880161287c565b92505060606130ce8782880161287c565b91505092959194509250565b6000602082840312156130f0576130ef612851565b5b60006130fe84828501612a20565b91505092915050565b600081519050919050565b600081905092915050565b60005b8381101561313b578082015181840152602081019050613120565b60008484015250505050565b600061315282613107565b61315c8185613112565b935061316c81856020860161311d565b80840191505092915050565b60006131848284613147565b915081905092915050565b600082825260208201905092915050565b7f526563656976657220646f65736e2774206d6174636800000000000000000000600082015250565b60006131d660168361318f565b91506131e1826131a0565b602082019050919050565b60006020820190508181036000830152613205816131c9565b9050919050565b7f4e6f7420656e6f7567682062616c616e636520696e207468652073656e64657260008201527f206163636f756e74000000000000000000000000000000000000000000000000602082015250565b600061326860288361318f565b91506132738261320c565b604082019050919050565b600060208201905081810360008301526132978161325b565b9050919050565b7f4e487b7100000000000000000000000000000000000000000000000000000000600052601160045260246000fd5b60006132d88261285b565b91506132e38361285b565b92508282039050818111156132fb576132fa61329e565b5b92915050565b600061330c8261285b565b91506133178361285b565b925082820190508082111561332f5761332e61329e565b5b92915050565b600081905092915050565b600061334c8385613335565b9350613359838584612958565b82840190509392505050565b6000613372828486613340565b91508190509392505050565b61338781612b1e565b82525050565b6000613399838561318f565b93506133a6838584612958565b6133af8361289b565b840190509392505050565b6133c38161285b565b82525050565b600060c0820190506133de600083018c61337e565b81810360208301526133f1818a8c61338d565b9050818103604083015261340681888a61338d565b9050613415606083018761337e565b818103608083015261342881858761338d565b905061343760a08301846133ba565b9a9950505050505050505050565b60008115159050919050565b61345a81613445565b811461346557600080fd5b50565b60008151905061347781613451565b92915050565b60006020828403121561349357613492612851565b5b60006134a184828501613468565b91505092915050565b7f4e487b7100000000000000000000000000000000000000000000000000000000600052602260045260246000fd5b600060028204905060018216806134f157607f821691505b602082108103613504576135036134aa565b5b50919050565b60008190508160005260206000209050919050565b60006020601f8301049050919050565b600082821b905092915050565b60006008830261356c7fffffffffffffffffffffffffffffffffffffffffffffffffffffffffffffffff8261352f565b613576868361352f565b95508019841693508086168417925050509392505050565b60006135a96135a461359f8461285b565b612aa4565b61285b565b9050919050565b6000819050919050565b6135c38361358e565b6135d76135cf826135b0565b84845461353c565b825550505050565b600090565b6135ec6135df565b6135f78184846135ba565b505050565b5b8181101561361b576136106000826135e4565b6001810190506135fd565b5050565b601f821115613660576136318161350a565b61363a8461351f565b81016020851015613649578190505b61365d6136558561351f565b8301826135fc565b50505b505050565b600082821c905092915050565b600061368360001984600802613665565b1980831691505092915050565b600061369c8383613672565b9150826002028217905092915050565b6136b582613107565b67ffffffffffffffff8111156136ce576136cd6128ac565b5b6136d882546134d9565b6136e382828561361f565b600060209050601f8311600181146137165760008415613704578287015190505b61370e8582613690565b865550613776565b601f1984166137248661350a565b60005b8281101561374c57848901518255600182019150602085019450602081019050613727565b868310156137695784890151613765601f891682613672565b8355505b6001600288020188555050505b505050505050565b7f4e487b7100000000000000000000000000000000000000000000000000000000600052602160045260246000fd5b7f556e617574686f72697a65640000000000000000000000000000000000000000600082015250565b60006137e3600c8361318f565b91506137ee826137ad565b602082019050919050565b60006020820190508181036000830152613812816137d6565b9050919050565b7f496e73756666696369656e742062616c616e6365000000000000000000000000600082015250565b600061384f60148361318f565b915061385a82613819565b602082019050919050565b6000602082019050818103600083015261387e81613842565b9050919050565b7f496e76616c696420737461747573207265717565737465640000000000000000600082015250565b60006138bb60188361318f565b91506138c682613885565b602082019050919050565b600060208201905081810360008301526138ea816138ae565b9050919050565b60006040820190506139066000830185612ee0565b61391360208301846133ba565b9392505050565b600060608201905061392f60008301866133ba565b61393c60208301856133ba565b61394960408301846133ba565b949350505050565b6000608082019050613966600083018961337e565b818103602083015261397981878961338d565b9050818103604083015261398e81858761338d565b905061399d606083018461337e565b979650505050505050565b60006040820190506139bd6000830185612ee0565b6139ca6020830184612ee0565b9392505050565b6000815190506139e081612865565b92915050565b6000602082840312156139fc576139fb612851565b5b6000613a0a848285016139d1565b91505092915050565b7f546f6b656e5472616e736665723a204e6f7420656e6f75676820616c6c6f776160008201527f6e63650000000000000000000000000000000000000000000000000000000000602082015250565b6000613a6f60238361318f565b9150613a7a82613a13565b604082019050919050565b60006020820190508181036000830152613a9e81613a62565b9050919050565b6000606082019050613aba6000830186612ee0565b613ac76020830185612ee0565b613ad460408301846133ba565b949350505050565b6000613ae782612ad0565b9050919050565b613af781613adc565b82525050565b6000608082019050613b1260008301876133ba565b613b1f6020830186613aee565b613b2c60408301856133ba565b613b3960608301846133ba565b95945050505050565b7f556e617574686f72697a65642e00000000000000000000000000000000000000600082015250565b6000613b78600d8361318f565b9150613b8382613b42565b602082019050919050565b60006020820190508181036000830152613ba781613b6b565b9050919050565b7f496e76616c6964205374617475732073656c65637465642e0000000000000000600082015250565b6000613be460188361318f565b9150613bef82613bae565b602082019050919050565b60006020820190508181036000830152613c1381613bd7565b9050919050565b6000613c2582613107565b613c2f818561318f565b9350613c3f81856020860161311d565b613c488161289b565b840191505092915050565b60006020820190508181036000830152613c6d8184613c1a565b905092915050565b600081519050613c8481612a09565b92915050565b600060208284031215613ca057613c9f612851565b5b6000613cae84828501613c75565b91505092915050565b600081519050919050565b600082825260208201905092915050565b6000613cde82613cb7565b613ce88185613cc2565b9350613cf881856020860161311d565b613d018161289b565b840191505092915050565b600060e082019050613d21600083018a612ee0565b8181036020830152613d338189613c1a565b90508181036040830152613d478188613c1a565b90508181036060830152613d5b8187613cd3565b90508181036080830152613d6f8186613c1a565b9050613d7e60a08301856133ba565b613d8b60c0830184612ee0565b98975050505050505050565b600060a0820190508181036000830152613db18188613c1a565b90508181036020830152613dc58187613c1a565b90508181036040830152613dd98186613cd3565b90508181036060830152613ded8185613c1a565b9050613dfc60808301846133ba565b9695505050505050565b7f4f776e61626c653a206e6577206f776e657220697320746865207a65726f206160008201527f6464726573730000000000000000000000000000000000000000000000000000602082015250565b6000613e6260268361318f565b9150613e6d82613e06565b604082019050919050565b60006020820190508181036000830152613e9181613e55565b9050919050565b7f4f776e61626c653a2063616c6c6572206973206e6f7420746865206f776e6572600082015250565b6000613ece60208361318f565b9150613ed982613e98565b602082019050919050565b60006020820190508181036000830152613efd81613ec1565b9050919050565b6000613f0f826129d7565b9050919050565b613f1f81613f04565b8114613f2a57600080fd5b50565b600081359050613f3c81613f16565b92915050565b600080600060608486031215613f5b57613f5a612851565b5b6000613f6986828701613f2d565b9350506020613f7a86828701613f2d565b9250506040613f8b8682870161287c565b9150509250925092565b60006020820190508181036000830152613fb081848661338d565b9050939250505056fea2646970667358221220d2452c407d616aae306febc9b3518ad61bb0431f75aac589e9a69fc3cdc0d82264736f6c63430008120033",
  "linkReferences": {},
  "deployedLinkReferences": {}
}